:100000000C9446010C9463010C9463010C946301FD
:100010000C9463010C9463010C9463010C946301D0
:100020000C9463010C9463010C94CF070C940908A1
:100030000C9463010C9463010C9463010C946301B0
:100040000C9463010C9463010C9463010C946301A0
:100050000C9463010C948A0A0C9463010C94630160
:100060000C9463010C9463010C9463010C94630180
:100070000C9463010C94590A0C9463010C94630171
:100080000C949A0C0C9463010C9463010C9463011E
:100090000C9463010C9463010C9463010C94630150
:1000A0000C9463010C9463010C94630177076F0750
:1000B00067075F0757074F0747073F0737072F07B0
:1000C00027071F0717070F070707FF06F706EF06A3
:1000D000E706DF06D706CF06C706BF06B706AF0698
:1000E000A7069F0697068F0687067F0677066F0688
:1000F00067065F0657064F0647063F0637062F0678
:1001000027061F0617060F060706FF05F705EF056A
:10011000E705DF05D705CF05C705BF05B705AF055F
:10012000A7059F0597058F0587057F057705076359
:100130004236B79BD8A71A39685618AEBAAB558C59
:100140001D3CB7CC5763BD6DEDFD753EF6177231A2
:10015000BF000000803F08000000BE922449123E0C
:10016000ABAAAA2ABECDCCCC4C3E00000080BEABD0
:10017000AAAAAA3E00000000BF000000803F0000C5
:10018000000000084178D3BB4387D1133D190E3CD2
:10019000C3BD4282AD2B3E68EC8276BED98FE1A909
:1001A0003E4C80EFFFBE01C4FF7F3F000000000017
:1001B0000001000047021200020000040243000395
:1001C000000000020401030904EC01120203090407
:1001D000E4010603030904DA0108080334003100CE
:1001E0003000000006034D003200000012034A00F8
:1001F0002E0020004600690065006E0065000000CA
:100200000403090409024300020100C0320904008A
:100210000001020201000524001001052401010172
:10022000042402060524060001070582031000408D
:1002300009040100020A0000000705030240000053
:10024000070584024000001201000202000010C0F5
:10025000167A040001010203010001C11201803677
:100260000181364E4F2044415441000A00312F4253
:100270006574613A20000A000A004B443A20000AE3
:10028000000A004B503A20000A000A0011241FBE49
:10029000CFEFDAE0DEBFCDBF11E0A0E0B1E0ECECE3
:1002A000F5E202C005900D92AC31B107D9F721E01B
:1002B000ACE1B1E001C01D92A134B207E1F70E94A8
:1002C000BF0C0C94E4120C940000589A599A5A9A54
:1002D0008CE08093B800E9E6F0E080818062808362
:1002E00080818F7E8083EA9A7894089584E8809351
:1002F000BC008091BC0087FFFCCF8091BB000895BB
:1003000084E98093BC00089520E030E08091BC0037
:1003100087FD06C02F5F3F4F293E83E03807B1F7C6
:1003200081E0283E334009F480E008958093BB00CB
:1003300084E88093BC000E948401882321F080918E
:10034000B900887F089580E008951F93CF93DF93CD
:100350001F92CDB7DEB7182F84EA8093BC00698363
:100360000E9484016981811104C094E99093BC00CA
:1003700014C0812F880F662331F08F5F0E94960191
:10038000883451F404C00E949601803229F484E933
:100390008093BC0080E001C081E00F90DF91CF919D
:1003A0001F910895CF93DF93C82FD62F60E00E944E
:1003B000A501882391F08D2F0E949601882369F072
:1003C00084E98093BC0061E08C2F0E94A501882302
:1003D00021F0DF91CF910C94760180E0DF91CF91F5
:1003E0000895CF93DF93D62FC42F60E00E94A5011C
:1003F000811102C080E00EC08D2F0E9496018823DB
:10040000C9F38C2F0E9496018823A1F384E980937D
:10041000BC0081E0DF91CF910895CF93DF93D82F77
:10042000C62F843010F080E05BC06430E0F70E949B
:1004300065012FEF85EA9EE0215080409040E1F772
:1004400000C0000065E789E60E94D201883659F7AE
:1004500041E06BE689E60E94F1014D2F440F440F05
:10046000440F6CE189E60E94F1014C2F440F440FC8
:10047000440F6BE189E60E94F10142E067E389E6FF
:100480000E94F10140E062E08EE10E94F10140E053
:1004900067E389E60E94F1014EE164E389E60E9488
:1004A000F10141E067E689E60E94F1014DE164E275
:1004B00089E60E94F1014EE965E289E60E94F101B8
:1004C00043E066E289E60E94F10146E967E289E6D7
:1004D0000E94F10140E26AE689E60E94F10181E0B2
:1004E000DF91CF910895EF92FF920F931F93CF93D7
:1004F000DF93CDB7DEB765970FB6F894DEBF0FBEBA
:10050000CDBF8C01CE0101967C019EE4692F89E666
:100510009D8B0E94D201F70181937F019D899150AB
:100520009A33A1F78F859889F801958384838F8109
:1005300098859387828789819A81918B808B89891D
:100540009A899383828389859A85918780878B8115
:100550009C81978786878B899C89918380838B85F3
:100560009C85978386838D819E819587848781E092
:1005700065960FB6F894DEBF0FBECDBFDF91CF9169
:100580001F910F91FF90EF900895EF92FF920F93BC
:100590001F93CF93DF93CDB7DEB727970FB6F894AD
:1005A000DEBF0FBECDBF8C01CE0101967C0190E471
:1005B000692F89E69F830E94D201F70181937F0111
:1005C0009F8191509A33A1F789819A81F80195838F
:1005D00084838B819C81938382838D819E8191838F
:1005E000808381E027960FB6F894DEBF0FBECDBFA3
:1005F000DF91CF911F910F91FF90EF900895EF92AF
:10060000FF920F931F93CF93DF93CDB7DEB727975A
:100610000FB6F894DEBF0FBECDBF8C01CE010196A0
:100620007C0198E4692F89E69F830E94D201F7013B
:1006300081937F019F8191509234A1F789819A81A2
:10064000F801958384838B819C81938382838D8140
:100650009E819183808381E027960FB6F894DEBF58
:100660000FBECDBFDF91CF911F910F91FF90EF9003
:100670000895EF92FF920F931F93CF93DF93CDB71F
:10068000DEB727970FB6F894DEBF0FBECDBF8C0143
:10069000CE0101967C019EE4692F89E69F830E942A
:1006A000D201F70181937F019F8191509834A1F786
:1006B00089819A81F801958384838B819C819383BE
:1006C00082838D819E819183808381E027960FB6FE
:1006D000F894DEBF0FBECDBFDF91CF911F910F9178
:1006E000FF90EF900895CF93DF9300D01F92CDB786
:1006F000DEB74B836A8389830E94650194EA9093F5
:10070000BC0089816A814B819091BC0097FFFCCF2E
:1007100090E59093BB0094E89093BC009091BC004E
:1007200097FFFCCF9091B900987F903229F484E92B
:100730008093BC0080E029C091E09093BB0094E8D6
:100740009093BC009091BC0097FFFCCF8093BB00BE
:1007500084E88093BC008091BC0087FFFCCF60934D
:10076000BB0084E88093BC008091BC0087FFFCCF75
:100770004093BB0084E88093BC008091BC0087FF5D
:10078000FCCF84E98093BC0081E00F900F900F9024
:10079000DF91CF91089524EA2093BC002091BC0002
:1007A00027FFFCCF21E52093BB0024E82093BC0069
:1007B0002091BC0027FFFCCF2091B900287F28346E
:1007C000A9F024EC2093BC002091BC0027FFFCCFB3
:1007D0002091BB0026130AC0FC0120E030E07727FF
:1007E00067FD70956150710944EC0EC084E98093F7
:1007F000BC0080E008955091BC0057FFFCCF5091A1
:10080000BB0051932F5F3F4F261737071CF44093CF
:10081000BC00F1CF44E84093BC004091BC0047FFCE
:10082000FCCF4091BB00FC01E20FF31F408384E941
:100830008093BC0081E00895F89494EA9093BC0002
:100840009091BC0097FFFCCF90E59093BB0094E89B
:100850009093BC009091BC0097FFFCCF9091B900A1
:10086000987F903231F484E98093BC00789480E0E2
:10087000089593E09093BB0094E89093BC0090910E
:10088000BC0097FFFCCF8093BB0084E88093BC0042
:100890008091BC0087FFFCCFFB01552747FD509599
:1008A00024E8CF01861B970B8417950754F4819198
:1008B0008093BB002093BC008091BC0087FFFCCFDD
:1008C000F0CF84E98093BC00789481E00895809112
:1008D000E80080FFFCCF089581E08093D70080EA94
:1008E0008093D80082E189BD09B400FEFDCF80E984
:1008F0008093D8001092E00010921F0110921C010A
:100900008CE08093E2007894089580911F0108950F
:100910009FB7F89480911F01882339F083E080937A
:10092000E9008091E80085FD03C09FBF8FEF089527
:100930008091F1002091E80025FD03C02BE6209373
:10094000E8009FBF08959FB7F89480911F01882306
:1009500031F083E08093E9008091F20001C080E0F3
:100960009FBF089580911F01882371F08FB7F8947D
:1009700093E09093E9002BE69091E80095FF03C087
:100980002093E800F9CF8FBF089590911F0199231C
:1009900071F09FB7F89424E02093E90020911D01A5
:1009A000222349F02091E80025FD03C09FBF8FEF6F
:1009B000089510921D012091E400275E34E04091DB
:1009C000E80045FD12C09FBF9091E400921304C05F
:1009D00081E080931D01EBCF90911F01992339F3A2
:1009E0009FB7F8943093E900EACF8093F1008091AB
:1009F000E80085FD03C08AE38093E80085E08093EA
:100A00001E019FBF80E0089590911F019923D1F0AE
:100A10009FB7F89424E02093E9002091E80025FD99
:100A200002C09FBF0FC08093F1008091E80085FD58
:100A300003C08AE38093E80085E080931E019FBF96
:100A400080E008958FEF0895EF92FF921F93CF9368
:100A5000DF937C01CB0120911F01222371F0AFB7FE
:100A6000F89424E02093E90020911D01222349F00D
:100A70002091E80025FD03C0AFBF8FEF42C2109266
:100A80001D01B4E0C0E4DAE315E0009709F437C2D1
:100A90002091E400275E3091E80035FD12C0AFBF21
:100AA0003091E400321304C081E080931D01E5CF52
:100AB00030911F01332309F3AFB7F894B093E900E5
:100AC000EACF2091F2004C2F421B242F30E08217F6
:100AD000930708F4482F841B910950E041345105D5
:100AE00008F0FDC14A5A5F4FFA010C947812F701E1
:100AF00020812093F10097012F5F3F4F7901F7018B
:100B000020812093F10097012F5F3F4F7901F7017A
:100B100020812093F10097012F5F3F4F7901F7016A
:100B200020812093F10097012F5F3F4F7901F7015A
:100B300020812093F10097012F5F3F4F7901F7014A
:100B400020812093F10097012F5F3F4F7901F7013A
:100B500020812093F10097012F5F3F4F7901F7012A
:100B600020812093F10097012F5F3F4F7901F7011A
:100B700020812093F10097012F5F3F4F7901F7010A
:100B800020812093F10097012F5F3F4F7901F701FA
:100B900020812093F10097012F5F3F4F7901F701EA
:100BA00020812093F10097012F5F3F4F7901F701DA
:100BB00020812093F10097012F5F3F4F7901F701CA
:100BC00020812093F10097012F5F3F4F7901F701BA
:100BD00020812093F10097012F5F3F4F7901F701AA
:100BE00020812093F10097012F5F3F4F7901F7019A
:100BF00020812093F10097012F5F3F4F7901F7018A
:100C000020812093F10097012F5F3F4F7901F70179
:100C100020812093F10097012F5F3F4F7901F70169
:100C200020812093F10097012F5F3F4F7901F70159
:100C300020812093F10097012F5F3F4F7901F70149
:100C400020812093F10097012F5F3F4F7901F70139
:100C500020812093F10097012F5F3F4F7901F70129
:100C600020812093F10097012F5F3F4F7901F70119
:100C700020812093F10097012F5F3F4F7901F70109
:100C800020812093F10097012F5F3F4F7901F701F9
:100C900020812093F10097012F5F3F4F7901F701E9
:100CA00020812093F10097012F5F3F4F7901F701D9
:100CB00020812093F10097012F5F3F4F7901F701C9
:100CC00020812093F10097012F5F3F4F7901F701B9
:100CD00020812093F10097012F5F3F4F7901F701A9
:100CE00020812093F10097012F5F3F4F7901F70199
:100CF00020812093F10097012F5F3F4F7901F70189
:100D000020812093F10097012F5F3F4F7901F70178
:100D100020812093F10097012F5F3F4F7901F70168
:100D200020812093F10097012F5F3F4F7901F70158
:100D300020812093F10097012F5F3F4F7901F70148
:100D400020812093F10097012F5F3F4F7901F70138
:100D500020812093F10097012F5F3F4F7901F70128
:100D600020812093F10097012F5F3F4F7901F70118
:100D700020812093F10097012F5F3F4F7901F70108
:100D800020812093F10097012F5F3F4F7901F701F8
:100D900020812093F10097012F5F3F4F7901F701E8
:100DA00020812093F10097012F5F3F4F7901F701D8
:100DB00020812093F10097012F5F3F4F7901F701C8
:100DC00020812093F10097012F5F3F4F7901F701B8
:100DD00020812093F10097012F5F3F4F7901F701A8
:100DE00020812093F10097012F5F3F4F7901F70198
:100DF00020812093F10097012F5F3F4F7901F70188
:100E000020812093F10097012F5F3F4F7901F70177
:100E100020812093F10097012F5F3F4F7901F70167
:100E200020812093F10097012F5F3F4F7901F70157
:100E300020812093F10097012F5F3F4F7901F70147
:100E400020812093F10097012F5F3F4F7901F70137
:100E500020812093F10097012F5F3F4F7901F70127
:100E600020812093F10097012F5F3F4F7901F70117
:100E700020812093F10097012F5F3F4F7901F70107
:100E800020812093F10097012F5F3F4F7901F701F7
:100E900020812093F10097012F5F3F4F7901F701E7
:100EA00020812093F10097012F5F3F4F7901F701D7
:100EB00020812093F10097012F5F3F4F7901F701C7
:100EC00020812093F10097012F5F3F4F7901F701B7
:100ED00020812093F10097012F5F3F4F7901F701A7
:100EE00020812093F10097012F5F3F4F79012091DE
:100EF000E80025FFD093E80010931E01C6CDAFBFD8
:100F000080E0DF91CF911F91FF90EF9008958FB710
:100F1000F89490911E01992341F094E09093E90098
:100F20009AE39093E80010921E018FBF089580917C
:100F300004010895809105010895809106010895A6
:100F400080911C0108959FB7F89420911F012223DE
:100F500039F022E02093E9003091E80035FD03C02C
:100F60009FBF8FEF089531EA3093F10030E2309364
:100F7000F1001092F1001092F1001092F100109225
:100F8000F1002093F1001092F1008093F100109293
:100F9000F1008AE38093E8009FBF80E008951F92EC
:100FA0000F920FB60F9211248F939F938091E100BF
:100FB0001092E10083FF11C01092E90091E090933C
:100FC000EB001092EC0092E19093ED0098E090938A
:100FD000F00010921F0110921C0182FF13C080913B
:100FE0001F01882379F080911E01882359F08150D8
:100FF00080931E01811106C084E08093E9008AE39A
:101000008093E8009F918F910F900FBE0F901F90DB
:1010100018951F920F920FB60F921124EF92FF9224
:101020000F931F932F933F934F935F936F937F93F0
:101030008F939F93AF93BF93EF93FF93CF93DF93E0
:101040001F92CDB7DEB71092E9008091E80083FFD0
:1010500014C19091F1008091F1003091F100209144
:10106000F100E32EF12CF22A0091F1002091F10021
:1010700010E0122B2091F1006091F10032EF3093DB
:10108000E800863009F046C036E080EB91E0FC01D4
:10109000459154914E155F0539F4FC013296459106
:1010A00054914017510721F00796315081F7E5C060
:1010B000FC01349645915491FC013696849130E0C0
:1010C000362B2F3F310519F010F02FEF30E02817A5
:1010D00008F4822F3EEF9091E800292F2570D9F374
:1010E00092FDCEC0982F813108F090E1FA01292FAE
:1010F000222331F064916093F10021503196F8CFB2
:10110000490F511D891B3093E8008111E4CF9031C4
:1011100011F3B6C0853051F48EEF8093E8000E9441
:1011200067048E2D80688093E300AAC0893059F54A
:10113000911180C0E0921F0110921C0110921E01BB
:101140008EEF8093E80041E089E592E04093E9006A
:101150009C012F5F3F4FFC0154915093EB005523AE
:1011600059F0F90124912093EC009C012D5F3F4F31
:10117000319684918093ED004F5F453011F0C901A5
:10118000E5CF8EE175C0883051F4903809F052C037
:101190000E94670480911F018093F10047C0813253
:1011A00079F4913A09F046C00E946704E0E0F1E06A
:1011B00081918093F10081E0E730F807C9F736C0EC
:1011C000803299F49132B1F58091E80082FFFCCF32
:1011D000E0E0F1E08091F100819381E0E730F807F1
:1011E000C9F78BEF8093E80021C0823241F491323D
:1011F00009F043C0E0921C010E94670417C08111EE
:1012000019C099830E9467049981923851F4009320
:10121000E9008091EB0085FB882780F91092E900B6
:1012200001C080E08093F1001092F1008EEF809376
:10123000E80026C0282F2D7F2130F9F49230E9F400
:10124000EF28D9F40F779FEF900F9430B0F49EEF12
:101250009093E8000093E900833079F089E180936E
:10126000EB0081E090E0002E01C0880F0A94EAF7BD
:101270008093EA001092EA0003C081E28093EB00C1
:101280000F90DF91CF91FF91EF91BF91AF919F911F
:101290008F917F916F915F914F913F912F911F910E
:1012A0000F91FF90EF900F900FBE0F901F90189529
:1012B0001F93CF93DF93EC01FE011491112351F0A2
:1012C0001A3019F48DE00E94C504812F0E94C504D4
:1012D0002196F2CFDF91CF911F9108958A3010F4BB
:1012E00090E301C097E3890F0C94C504CF93C82FF6
:1012F00082958F700E946E098C2F8F70CF910C9405
:101300006E09CF93C82F892F0E9476098C2FCF9119
:101310000C9476090C947609EF92FF920F931F9329
:10132000CF93DF93CDB7DEB727970FB6F894DEBF24
:101330000FBECDBF8E010F5F1F4F27E0F801119246
:101340002A95E9F74AE0B8010E947E127E01F8E092
:10135000EF0EF11CF80181918F0181110E94C504EB
:101360000E151F05B9F727960FB6F894DEBF0FBE0E
:10137000CDBFDF91CF911F910F91FF90EF90089516
:10138000EF92FF920F931F93CF93DF9300D000D083
:1013900000D0CDB7DEB78E010F5F1F4F26E0F801FA
:1013A00011922A95E9F74AE0B8010E94BA127E012B
:1013B000F6E0EF0EF11CF80181918F0181110E947E
:1013C000C5040E151F05B9F726960FB6F894DEBFB3
:1013D0000FBECDBFDF91CF911F910F91FF90EF9086
:1013E0000895EF92FF920F931F93CF93DF93CDB7A2
:1013F000DEB72B970FB6F894DEBF0FBECDBF8E01C0
:101400000F5F1F4F2BE0F80111922A95E9F72AE0B0
:10141000A8010E9489127E01FCE0EF0EF11CF80188
:1014200081918F0181110E94C5040E151F05B9F726
:101430002B960FB6F894DEBF0FBECDBFDF91CF91D4
:101440001F910F91FF90EF900895EF92FF920F93ED
:101450001F93CF93DF93CDB7DEB72B970FB6F894DA
:10146000DEBF0FBECDBF8E010F5F1F4F2BE0F80117
:1014700011922A95E9F72AE0A8010E9498127E01AC
:10148000FBE0EF0EF11CF80181918F0181110E94A8
:10149000C5040E151F05B9F72B960FB6F894DEBFDD
:1014A0000FBECDBFDF91CF911F910F91FF90EF90B5
:1014B00008951F920F920FB60F9211242F933F930E
:1014C0008F939F93EF93FF938091260190E020915B
:1014D000780030917900FC01EE0FFF1FE75CFE4FB2
:1014E00031832083019683709927809326018C5B3A
:1014F00080937C00EAE7F0E0808180648083FF9144
:10150000EF919F918F913F912F910F900FBE0F9070
:101510001F9018951F920F920FB60F9211248F9360
:1015200081E0809324018F910F900FBE0F901F9048
:101530001895CF93DF93ACE7B0E08C9180648C93E7
:101540008C918F778C93EAE7F0E0808181608083D3
:10155000808184608083808182608083CEE7D0E058
:1015600088818061888388818062888388818064A3
:101570008883888180688883808188608083808177
:101580008F7D8083CBE7D0E088818F7D88838C91AD
:1015900084608C938C918D7F8C938C918E7F8C93B7
:1015A000808180688083808180648083DF91CF9197
:1015B0000895269A279AE0E8F0E080818160808390
:1015C000808182608083A1E8B0E08C9188608C93F8
:1015D0008C9180618C9380818F7E808380818062FA
:1015E000808380818B7F80838081886080838FEF80
:1015F00090E0909389008093880010928B00109265
:101600008A0010928D0010928C008C918B7F8C93AD
:101610008C918D7F8C938C9181608C9308950E9426
:10162000D90A219A229A239A249A259A089585B54F
:10163000877F85BD84B5826084BD84B58E7F84BD7F
:1016400087E287BDEEE6F0E080818260808385B529
:10165000846085BD85B58D7F85BD85B5816085BD7F
:101660000895299A97FD0EC02C9A2D988B3F9105CD
:1016700014F4059602C08FEF90E090938B00809356
:101680008A0011C02C982D9A86302FEF92072CF0EB
:1016900025E030E0281B390B02C02FEF30E03093FB
:1016A0008B0020938A0077FD0FC02A9A2B986B3FFE
:1016B00071051CF46B5F7F4F02C06FEF70E0709399
:1016C0008D0060938C0008952A982B9A66308FEFD6
:1016D00078072CF085E090E0861B970B02C08FEF17
:1016E00090E090938D0080938C0008952998089540
:1016F0004F925F926F927F92AF92BF92CF92DF92A2
:10170000EF92FF920F931F93CF93DF93CDB7DEB786
:101710002C970FB6F894DEBF0FBECDBFCE01019659
:101720007C0100E010E05C010E94A304882359F0D2
:101730000830110541F00E948804F70181937F0170
:101740000F5F1F4FF1CFC12CD12C612C712C015098
:101750001109101611060CF047C0F501E00FF11F3A
:10176000E080FF24E7FCF094F0E3EF1AF108B60103
:1017700080E090E00E94FE0F9B01AC0160E070E011
:1017800080E291E40E9413119B01AC01B301882710
:1017900077FD8095982F29873A874B875C870E9431
:1017A00000102B013C01B701882777FD8095982F09
:1017B0000E94001029853A854B855C850E94B010F7
:1017C0009B01AC01C301B2010E94FD0E0E94CD0F2E
:1017D0003B01C7010E948C098AE892E00E945809E7
:1017E0008FEFC81AD80AB3CF8981843409F447C06F
:1017F000803581F1823409F057C0B301882777FD25
:101800008095982F0E94001060930B0170930C013B
:1018100080930D0190930E0186E792E00E94580993
:101820008DE692E00E94580920910B0130910C0145
:1018300040910D0150910E0160E070E080E89FE35F
:101840000E94650F0E94CD0FCB010E948C098BE690
:1018500092E02CC070921A016092190188E892E01F
:101860000E94580983E892E00E945809809119016A
:1018700090911A010E948C0981E892E017C0709241
:101880001801609217018FE792E00E9458098AE7D9
:1018900092E00E94580980911701909118010E94CE
:1018A0008C0988E792E002C083E692E02C960FB69E
:1018B000F894DEBF0FBECDBFDF91CF911F910F9186
:1018C000FF90EF90DF90CF90BF90AF907F906F90A0
:1018D0005F904F900C945809609120017091210104
:1018E00080912201909123010895E1E9F0E0808147
:1018F0008F7E8083808188608083A0E9B0E08C91B6
:10190000877F8C938C918E7F8C938AEF90E090935D
:10191000990080939800A1E7B0E08C9182608C934D
:1019200080818B7F808380818260808380818160E1
:10193000808308951F920F920FB60F9211248F93F8
:101940009F93AF93BF938091200190912101A0912B
:101950002201B09123010196A11DB11D80932001A8
:1019600090932101A0932201B0932301BF91AF91E5
:101970009F918F910F900FBE0F901F901895CF934E
:10198000DF93CDB7DEB7A2970FB6F894DEBF0FBED8
:10199000CDBF10E810936100109261000E94990A77
:1019A0000E94170B0E940F0B0E94750C3E9A3F9AE3
:1019B0000E94650161E081E00E940D020E946C04BA
:1019C0006A9A729815BF15BF7894412C512C320138
:1019D0001D8A1E8A1F8A188E198E1A8E1B8E1C8EC7
:1019E0001D8E1E8E1F8E18A273016201809124012C
:1019F0008823E1F31092240187E291E00E94C5025E
:101A00008DE291E00E94FF0220910B0130910C01C8
:101A100040910D0150910E0160E070E080E89FE37D
:101A20000E94FC0E4B015C0160912F01709130010E
:101A3000882777FD8095982F0E94001020E030E0E5
:101A400042E852E40E94650F2BED3FE049E450E488
:101A50000E94B01020E030E044E353E40E94650FA0
:101A60002CEA3BE84BED5BE30E94FC0E2AE037EDED
:101A700043E25BE30E94B0109B01AC01C701B601D9
:101A80000E94FC0E9B01AC01C501B4010E94B01084
:101A90006B017C0180900B0190900C01A0900D01D6
:101AA000B0900E0160912B0170912C01882777FD79
:101AB0008095982F0E94001020E03EEF4FEF55E4F4
:101AC0000E94650FA30192010E94FC0E9B01AC01D4
:101AD0005058C501B4010E94B0109B01AC01C70170
:101AE000B6010E94FD0E6B017C019E012F5F3F4FEE
:101AF0003A8B298BAE01475F5F4F1A0100E010E07F
:101B0000D1016D917C91E989FA8961937193FA8B86
:101B1000E98B8090070190900801A0900901B09096
:101B20000A014090070150900801609009017090EF
:101B30000A01F801EE0FFF1FE75CFE4F20813181A3
:101B40003AA329A380E090E00E94FE0F9B01AC0124
:101B5000C501B4010E94B0104B015C01A3019201C8
:101B600060E070E080E89FE30E94FC0E2B013C01E6
:101B700049A15AA1BA0180E090E00E94FE0F9B01AA
:101B8000AC01C301B2010E94B0109B01AC01C501C0
:101B9000B4010E94FD0E0E94D20FD1016D937D937E
:101BA0001D010F5F1F4F0430110509F0A9CF8B8570
:101BB0009C8549815A8129853A858115B2E09B0728
:101BC00018F4421B530B04C0F901E41BF50BAF01E1
:101BD0000B811C812115324028F49C01201B310B04
:101BE000890102C0081B190B8F8598892D853E85B8
:101BF000AD80BE80811562E0960728F4D901AA194C
:101C0000BB095D0102C0A21AB30A8F809884211516
:101C1000324018F4881A990A04C0FC01E819F9093D
:101C20004F01040F151FC801AA2797FDA095BA2FD1
:101C3000298D3A8D4B8D5C8D280F391F4A1F5B1FF4
:101C4000298F3A8F4B8F5C8FC501880D991DAA276C
:101C500097FDA095BA2F4D895E896F89788D480FC1
:101C6000591F6A1F7B1F4D8B5E8B6F8B788F409047
:101C7000130150901401609015017090160160914D
:101C80000F01709110018091110190911201698BE7
:101C90007A8B8B8B9C8B698D7A8D8B8D9C8D2D890E
:101CA0003E894F89588D620F731F841F951F0E94B4
:101CB00000109B01AC01C301B2010E94B0109B0156
:101CC000AC0160E070E0CB010E94FC0E2B013C01F6
:101CD000B8016A0D7B1D680D791D882777FD8095F9
:101CE000982F0E9400109B01AC0169897A898B8929
:101CF0009C890E94B0109B01AC01C301B2010E94FB
:101D0000FC0E2B013C019B01AC01C701B6010E94F6
:101D1000FC0E1B018C01A0901901B0901A0140919A
:101D20001701509118015A8B498BC701B6010E94C7
:101D3000CD0F9B0177FF04C022273327261B370BCB
:101D4000B901882777FD8095982F0E94001020E028
:101D500030E040E05FE30E94610F87FF4AC0B501B9
:101D6000882777FD8095982F0E9400109101A80187
:101D70000E94B0104B015C01A989BA89BD01882776
:101D800077FD8095982F0E940010698B7A8B8B8B42
:101D90009C8B2D8D3E8D4F8D58A1B101C8010E94A5
:101DA000FC0E9B01AC0169897A898B899C890E9410
:101DB000B0109B01AC01C501B4010E94FD0E0E9450
:101DC000CD0F4B015C01882777FD8095982F0E94ED
:101DD00000102DEC3CEC4CE85FE30E94B0100E9438
:101DE000CD0FC4010E94310B2D8E3E8E0F8F18A394
:101DF000FDCD0E94760BF8CF5058BB27AA270ED0F6
:101E000075C166D130F06BD120F031F49F3F11F4F1
:101E10001EF45BC10EF4E095E7FB51C1E92F77D1C9
:101E200080F3BA17620773078407950718F071F4F7
:101E30009EF58FC10EF4E0950B2EBA2FA02D0B014D
:101E4000B90190010C01CA01A0011124FF27591BFF
:101E500099F0593F50F4503E68F11A16F040A22F05
:101E6000232F342F4427585FF3CF46953795279576
:101E7000A795F0405395C9F77EF41F16BA0B620B75
:101E8000730B840BBAF09150A1F0FF0FBB1F661FBC
:101E9000771F881FC2F70EC0BA0F621F731F841FFF
:101EA00048F4879577956795B795F7959E3F08F025
:101EB000B3CF9395880F08F09927EE0F97958795E4
:101EC0000895D9D008F481E008950CD00FC107D14E
:101ED00040F0FED030F021F45F3F19F0F0C0511116
:101EE00039C1F3C014D198F39923C9F35523B1F341
:101EF000951B550BBB27AA2762177307840738F079
:101F00009F5F5F4F220F331F441FAA1FA9F333D0D7
:101F10000E2E3AF0E0E830D091505040E695001C8B
:101F2000CAF729D0FE2F27D0660F771F881FBB1F47
:101F3000261737074807AB07B0E809F0BB0B802D21
:101F4000BF01FF2793585F4F2AF09E3F510568F06D
:101F5000B6C000C15F3FECF3983EDCF38695779501
:101F60006795B795F7959F5FC9F7880F911D96956F
:101F7000879597F90895E1E0660F771F881FBB1FCB
:101F8000621773078407BA0720F0621B730B840B78
:101F9000BA0BEE1F88F7E095089504D06894B1114C
:101FA000D9C00895BCD088F09F5790F0B92F9927D9
:101FB000B751A0F0D1F0660F771F881F991F1AF054
:101FC000BA95C9F712C0B13081F0C3D0B1E008951D
:101FD000C0C0672F782F8827B85F39F0B93FCCF39E
:101FE000869577956795B395D9F73EF4909580954A
:101FF000709561957F4F8F4F9F4F0895E89409C06A
:1020000097FB3EF490958095709561957F4F8F4F2B
:102010009F4F9923A9F0F92F96E9BB279395F69541
:10202000879577956795B795F111F8CFFAF4BB0FBF
:1020300011F460FF1BC06F5F7F4F8F4F9F4F16C023
:10204000882311F096E911C0772321F09EE8872FAD
:10205000762F05C0662371F096E8862F70E060E069
:102060002AF09A95660F771F881FDAF7880F9695E2
:10207000879597F90895990F0008550FAA0BE0E886
:10208000FEEF16161706E807F907C0F0121613063A
:10209000E407F50798F0621B730B840B950B39F47A
:1020A0000A2661F0232B242B252B21F408950A26E0
:1020B00009F4A140A6958FEF811D811D089597F920
:1020C0009F6780E870E060E008959FEF80EC0895DE
:1020D00000240A9416161706180609060895002407
:1020E0000A9412161306140605060895092E039481
:1020F000000C11F4882352F0BB0F40F4BF2B11F4F5
:1021000060FF04C06F5F7F4F8F4F9F4F089557FD53
:102110009058440F551F59F05F3F71F04795880F55
:1021200097FB991F61F09F3F79F0879508951216EC
:1021300013061406551FF2CF4695F1DF08C0161698
:1021400017061806991FF1CF869571056105089449
:102150000895E894BB2766277727CB0197F9089560
:102160000BD0C4CFB5DF28F0BADF18F0952309F003
:10217000A6CFABCF1124EECFCADFA0F3959FD1F34A
:10218000950F50E0551F629FF001729FBB27F00D25
:10219000B11D639FAA27F00DB11DAA1F649F66277A
:1021A000B00DA11D661F829F2227B00DA11D621FC9
:1021B000739FB00DA11D621F839FA00D611D221F83
:1021C000749F3327A00D611D231F849F600D211D67
:1021D000822F762F6A2F11249F5750408AF0E1F00A
:1021E00088234AF0EE0FFF1FBB1F661F771F881F53
:1021F00091505040A9F79E3F510570F060CFAACF93
:102200005F3FECF3983EDCF3869577956795B7953D
:10221000F795E7959F5FC1F7FE2B880F911D969567
:10222000879597F90895FA01EE0FFF1F3096210563
:10223000310599F16115710561F48038BFE39B07A1
:1022400049F168949038810561F08038BFEF9B07B1
:1022500041F0992342F5FF3FE1053105210511F1D8
:10226000E8940894E795D901AA2329F4AB2FBE2F4F
:10227000F85FD0F310C0FF5F70F4A695E0F7F73970
:1022800050F019F0FF3A38F49F779F930CD00F90DD
:1022900007FC905808953EF018CF60E070E080E8A9
:1022A0009FE308954FE79F775F934F933F932F935B
:1022B0009ED02F913F914F915F9152DF05C019F44D
:1022C0000EF0FDCE46CF01CF2ADFC8F39638C0F717
:1022D00007F80F92E8942BE33AEA48EB5FE74EDF0A
:1022E0000F920F920F924DB75EB70F92C0D0EEE2F1
:1022F000F1E016D04F915F91EF91FF91E595EE1FC0
:10230000FF1F49F0FE57E0684427EE0F441FFA957F
:10231000E1F74195550B32D00F9007FE26C0089586
:10232000DF93CF931F930F93FF92EF92DF927B0186
:102330008C01689405C0DA2EEF011EDFFE01E894DF
:10234000A5912591359145915591AEF3EF0166DD4B
:10235000FE019701A801DA9479F7DF90EF90FF90E2
:102360000F911F91CF91DF9108959B01AC0160E027
:1023700070E080E89FE3A9CDA2CEACC0D0DEE8F348
:102380009923D9F3940F511DBBF39150504094F011
:1023900059F0882332F0660F771F881F9150504004
:1023A000C1F79E3F510544F7880F911D969587957B
:1023B00097F908955F3FACF0983E9CF0BB27869557
:1023C00077956795B79508F4B1609395C1F7BB0F02
:1023D00058F711F460FFE8CF6F5F7F4F8F4F9F4F2B
:1023E000E3CFB8CE0EF076C070CE689468CE97DE9C
:1023F000C8F39923D1F3C6F3DF93CF931F930F93C1
:10240000FF92C92FDD2788232AF02197660F771FB7
:10241000881FDAF720E030E040E85FEB9FE388397F
:1024200020F0803E30F021968F77E7DCE6E5F1E0A2
:1024300003C0E3DCE3E8F1E073DF8B01BE01EC01F4
:10244000FB2E6F5771097595771F880B990BD8DD97
:1024500028E132E741E35FE38FDEAF2D9801AE0163
:10246000FF900F911F91CF91DF91D8DC3FCEFA0101
:10247000DC01AA0FBB1F9B01AC01BF5728F4222728
:102480003327442750781FC0B75188F4AB2F00245E
:10249000469537952795011CA395D2F3002069F046
:1024A000220F331F441FB395DAF30DD0A5CC613052
:1024B0007105A0E88A07B94630F49B01AC01662794
:1024C000772788279078309621F0208331834283C4
:1024D000538308959F3F31F0915020F4879577956D
:1024E0006795B795880F911D9695879597F90895EB
:1024F000EE0FFF1F0590F491E02D0994BB274A30A1
:1025000031F4992322F4BDE2909581959F4F0C946C
:10251000BB12BB272A3051F4992342F4BDE29095B7
:102520008095709561957F4F8F4F9F4F0C949912B6
:10253000BB27FA01A62F6217710581059105330BA0
:1025400030FB66F0AA27660F771F881F991FAA1F06
:10255000A21710F0A21B63953850A9F7A05DAA330B
:1025600008F0A95DA19336F7B111B1931082CA01A9
:102570000C94D412BB27FB015527AA27880F991F5B
:10258000AA1FA41710F0A41B83955051B9F7A05DA2
:10259000AA3308F0A95DA193009779F7B111B1931F
:1025A0001192CB010C94D412DC01FC01672F7191C4
:1025B0007723E1F7329704C07C916D937083629129
:0C25C000AE17BF07C8F30895F894FFCFD2
:1025CC0000E100000000080000003FA69B443B1700
:0C25DC00B75138ACC5A7364600A00F0070
:00000001FF
